:100100003A5C003DF20C010E19CD05005FC641328C
:100110003702D50E0ECD0500D1D50E1FCD0500D16D
:10012000E5114302CD9001116302CD9B01117B02C9
:10013000CD9B01119202CD9B0111AA02CD9001111C
:10014000D002CD900111F202CD9B01111B03CD9B7A
:1001500001114403CD9001115D03CD9001E50E0C1A
:10016000CD0500FE30E1DA7F01118C03CD9B01113A
:10017000B403CD9B013E0D3285033E11328901113E
:1001800006020E09CD0500E1060FCDA601C3F70159
:10019000E523CD9B01E3CD9B01E1C97E23CDE101A8
:1001A0001213791213C9CDBE013E3ACDEA01CD0139
:1001B000027ECDC301CD01022305C2B101C97CCDB0
:1001C000C3017DF5CDD101CDEA01F1CDD501C3EA61
:1001D000011F1F1F1FE60FFE0ADADE01C607C63029
:1001E000C9F5CDD5014FF1C3D101C5D5E55F0E02EB
:1001F000CD0500E1D1C1C93E0DCDEA013E0AC3EAF9
:10020000013E20C3EA0153484F5720445042202862
:100210004469736B20506172616D65746572204230
:100220006C6F636B290A0D0A0D44504220666F7291
:1002300020647269766520413A0A0D0A0D535054C4
:100240003A2020000000004809536563746F727300
:100250002070657220747261636B2E0A0D425348E0
:100260003A202000004809426C6F636B2073686974
:1002700066742E0A0D424C4D3A2020000048094277
:100280006C6F636B206D61736B2E0A0D45584D3A90
:10029000202000004809457874656E74206D6173F4
:1002A0006B2E0A0D44534D3A2020000000004809EF
:1002B0004D6178696D756D2023206F6620626C6FCB
:1002C000636B73202D20312E0A0D44524D3A2020AD
:1002D0000000000048094469726563746F727920F8
:1002E000656E74726965732D312E0A0D414C56305E
:1002F0003A20000048094469726563746F7279207E
:1003000067726F757020616C6C6F636174696F6E7A
:1003100020302E0A0D414C56313A20000048094445
:1003200069726563746F72792067726F757020618E
:100330006C6C6F636174696F6E20312E0A0D434BD4
:10034000533A2020000000004809436865636B2091
:1003500073697A652E0A0D4F46463A202000000048
:100360000048094F666673657420286E756D626576
:100370007220726573657276656420747261636B56
:1003800073292E0A0D245053483A202000004809B2
:10039000506879736963616C207265636F72642061
:1003A000736869667420666163746F720A0D5053D6
:1003B0004D3A202000004809506879736963616CE8
:1003C000207265636F7264206D61736B0A0D240A7D
:1003D0000D22445042206164647265737320616E23
:1003E00064204865782064756D70206F66207461A4
:0803F000626C652E220A0D2447
:0000000000
